:1000000013C02DC02CC02BC02AC029C028C027C0B7
:1000100026C025C024C023C022C021C020C01FC0CC
:100020001EC01DC01CC01BC011241FBECFEFD2E0DC
:10003000DEBFCDBF11E0A0E0B1E0E6E7F8E002C02E
:1000400005900D92A832B107D9F711E0A8E2B1E00E
:1000500001C01D92A73CB107E1F732D20AC4D0CF4C
:1000600080E090E0FC01E054FE4F2081220F2083CD
:10007000019685309105B1F79091C00186B18170EC
:10008000892B8093C0018091C10196B192FB992781
:1000900090F9892B8093C1018091C20196B193FBA5
:1000A000992790F9892B8093C2018091C30196B161
:1000B00092959170892B8093C3018091C40196B170
:1000C00095FB992790F9892B8093C401089536B147
:1000D00069B149B123B159B1862F817090E0880F81
:1000E000991F31FB992790F9892B4270440F482BB7
:1000F000207830E074E0359527957A95E1F7422B2A
:100100005072852F90E095958795482B4093440138
:100110000895CF93DF93A82FB0E09D01220F331FE6
:10012000F901E95CFE4F4FEF5FE751834083A05434
:10013000BE4F9C919770E9F04091440150E0082E29
:1001400002C0559547950A94E2F7E901C85EDE4F73
:1001500040FF07C04081518168817981461B570B60
:1001600006C04081518168817981460F571F5183B4
:1001700040839C91977C903CE1F41C924091440117
:1001800050E002C0559547958A95E2F7F901EA5F7C
:10019000FE4F80819181D901A85EBE4F2D913C9187
:1001A00040FF03C0821B930B02C0820F931F9183F9
:1001B0008083DF91CF910895E82FF0E0EE0FFF1FCD
:1001C000EA5FFE4F8081918197FF23C090912B01C0
:1001D00080910201891708F042C010922B018081A2
:1001E00091816FE370E034D3815C9F47B6E09695D0
:1001F0008795BA95E1F781509048918380838081FB
:1002000091818F3F9F4758F58FEF9FE791838083C0
:1002100026C0808191818F3F9F4708F590912B01E7
:10022000809102018917D8F410922B01808191816D
:1002300061EC7FEF0DD38F539048A6E0969587959C
:10024000AA95E1F72FEF3FE7A901481B590B51830E
:1002500040838081918197FF02C031832083809108
:100260002B018F5F80932B010895811106C02FEF22
:100270003FE73093420120934101282F30E0220FC5
:10028000331FF901E95CFE4F4081518140914101EA
:1002900050914201608171814F5F5F47460F571F48
:1002A0005093420140934101F901EA5FFE4F2081E2
:1002B00031812091410130914201408151812F5F74
:1002C0003F47240F351F3093420120934101843072
:1002D00041F48091410190914201909336018093C5
:1002E000350108959091C50180911001981307C0C0
:1002F0008091C6018F5F8093C6011092C5018091E5
:10030000C6018C3310F01092C601E091C601F0E0F6
:100310008091350190913601EE0FFF1FEB5BFE4F90
:10032000918380838091C6018F5F80934301809188
:1003300043018C3310F010924301E0914301F0E04F
:10034000EE0FFF1FEB5BFE4F808191819093360192
:10035000809335018091C5018F5F8093C501089519
:1003600080913501909136018B399F4740F410926E
:10037000BD011092BE0188E18093BF010895809174
:100380003501909136018B399F47B8F08091350146
:10039000909136018F3F9F4780F480913501909175
:1003A00036011092BD018B59869586958093BE01CA
:1003B00098E1981B9093BF01089580913501909129
:1003C00036018F3F9F4731F41092BD0188E1809341
:1003D000BE0127C0809135019091360197FF15C06D
:1003E00080913501909136018336904870F4809168
:1003F0003501909136018F5F869586958093BD017A
:1004000098E1981B9093BE010CC0809135019091AA
:1004100036018336904838F088E18093BD01109210
:10042000BE011092BF0108959091BD0180913001ED
:10043000891710F45A9801C05A9A9091BE01809180
:100440003001891710F45B9801C05B9A9091BF014D
:1004500080913001891710F45C9801C05C9A8091FA
:1004600030018F5F809330018091300108958AB10F
:100470008C618AB98BB18C618BB987B1807C87B96B
:100480008AB18C7D8AB9279884B18F6084B985B18F
:10049000896085B957985698E0E8F0E08081806AD5
:1004A0008083808183608083E1E8F0E080818860E0
:1004B000808380818460808380E380938A000895B4
:1004C000D6DF80E090E02FEF3FE7FC01EE0FFF1F4B
:1004D000EB5BFE4F3183208301968C339105A9F7A6
:1004E000EE24E39468E1F62E7FE0D72EE0E5CE2EF1
:1004F000F4E1BF2EA2E3AA2EBCE39B2E04EF11E091
:10050000C4EDDFE7809133018111BCC010928000FF
:1005100010928100B092030180912C01811102C0E0
:100520009FDD7DC180912C01813011F4D0DD77C138
:1005300080912C01823028F080912C01873008F4C2
:10054000C2C080912C01873028F080912C018C3022
:1005500008F4C6C080912C018C3028F080912C01C9
:10056000813108F4CAC080912C01813189F58091D4
:1005700035019091360184369048E8F010920101DF
:100580009092020110932A0100932901D093070150
:10059000C0930601D0930901C0930801D0930B01C9
:1005A000C0930A01D0930D01C0930C01D0930F01A9
:1005B000C0930E0134C19091010180910001981700
:1005C00008F02DC1809101018F5F8093010127C147
:1005D00080912C01823161F58091290190912A014D
:1005E000029750F08091290190912A0101979093F0
:1005F0002A01809329010CC08091290190912A0140
:10060000019731F410922A0110922901A092280139
:1006100080912801882349F080912801815080939E
:10062000280185B1866085B9FAC029982A98F7C053
:1006300080912C01833111F493DEF1C080912C0163
:10064000843109F0ECC04E9B0EC0809111018130C5
:1006500051F48091310190913201019690933201D1
:100660008093310104C010923201109231018091C7
:10067000310190913201883B9B4009F0CDC0E0925E
:100680003301C8C080913301813009F0C8C0809126
:100690008000836A80938000809181008C608093C9
:1006A000810080912C01882309F43ACF80912C019C
:1006B000813009F43BCF80912C01823048F0809149
:1006C0002C01873028F480912C01825022DDA7C0B4
:1006D00080912C01873048F080912C018C3028F4D7
:1006E00080912C01875068DD9AC080912C018C305C
:1006F00048F080912C01813128F480912C018C509C
:10070000B4DD8DC080912C01813131F480914401A0
:10071000811102C0E7DD83C080912C01823199F5FF
:1007200080913501909136018038904828F0C09230
:100730008800C0928A0073C0809135019091360183
:1007400088389F4728F4D0928800D0928A0067C0EA
:10075000809135019091360180589F4796958795F5
:1007600096958795815F809388008091350190915F
:10077000360180589F479695879596958795815F16
:1007800080938A004CC080912C018331F1F48091D8
:1007900035019091360197FF07C0F092BD0110928C
:1007A000BE011092BF013BC080913501909136018E
:1007B0008F3F9F4718F41092BD0102C0F092BD0117
:1007C0001092BE01F092BF012AC080912C018431A9
:1007D00031F54E9B12C080911101813071F48091EE
:1007E0001101813071F480913101909132010196B3
:1007F000909332018093310104C010923201109223
:1008000031018091310190913201883B9B4021F46C
:1008100010923301109211014E9BE09211018091D0
:100820002C018F5F80932C0190912C01809103010A
:10083000891710F410922C01909101018091000110
:10084000981720F48BB1837E8BB95CCEEDDD5ACE48
:100850000024552704C0080E591F880F991F0097C0
:1008600029F076956795B8F37105B9F7802D952F26
:060870000895F894FFCF8B
:10087600323228143000FF7FFF7FFF7FFF7FFF7F2C
:10088600080132F401E803FF82003C0046005000F4
:080896006E00B80B6380FF7FC8
:00000001FF
