:1000000013C01AC019C018C017C016C015C014C03C
:1000100013C012C011C010C00FC00EC00DC00CC064
:100020000BC00AC009C008C011241FBECFEFD2E028
:10003000DEBFCDBF21D02CC0E3CF8AB18C618AB99D
:100040008BB1837E8BB9E4E6F0E080818E7F808384
:10005000EAE7F0E080818068808380818660808329
:10006000808180648083ECE7F0E08081806280831F
:100070008081806480830895E0DF8091790087FF2C
:1000800003C08BB18C6102C08BB1837E8BB9F5CF7D
:04009000F894FFCF12
:00000001FF
